:400000000080002011000000A10C0000A10C000008B5044B1A6803F53F5302331A6000F05FFE00BFFA46004010B5054C237833B9044B13B10448AFF300800123237010BDC0
:400040009881FF1F00000000003F0000084B10B51BB108490848AFF300800848036803B910BD074B002BFBD0BDE81040184700BF000000009C81FF1F003F0000C880FF1FE4
:4000800000000000014B33F810007047083F0000024B03EB40000089704700BF083F000038B5054601240AE0074B03EB84032946186902F0D1FA08B9E0B238BD0134032C93
:4000C000F2DD002038BD00BF083F0000A0F2873040F29F1303FB00F0044B83FB0023C017D0EBE31000D5002080B270473525C43308B5002001F024F930B101F033F9034B20
:400100001B88C01A80B208BD002008BDB481FF1F10B5FFF7EDFFFFF7D9FF0446054800F0AFFF204600F026FC034800F0A9FF204610BD00BF283F00000841000038B5054634
:40014000FFF7E6FF04462846FFF79CFFA0F114039C4204DB1430844203DD002038BD002038BD012038BD00BF38B50546FFF7D0FF04462846FFF78CFFA0F114039C4204DB72
:400180001430844203DD002038BD002038BD012038BD00BF053004280CD8DFE800F00907050D0300054870470548704705487047054870470548704705487047343F0000AA
:4001C000743F00009C3F0000B43F0000D03F0000583F000010B50446054800F051FF2046FFF7D8FF00F04CFF024800F049FF10BDE03F00000841000008B5002002F09CFAB2
:4002000002F0D0F908BD00BF08B562B600F0A2FBFFF7F2FF002008BD30B589B000F02EFB044608B100F030FB5E4B9B78052B00F2B380DFE803F0034B5B8EA4AA5A492046A3
:4002400002F00AFA48B15949204602F005FA20B15749204602F000FA00BB2046FFF720FF0546431EDBB2022B10D84E4BD878FFF765FF58B14B4BDD704E4800F001FF204634
:4002800000F0FEFE4C4800F0FBFE88E04B4800F099FF6FF00200FFF79DFF80E04849204602F0DAF900287AD13E4BDB78013BDBB2022B03D801223B4B9A7070E0414800F0A7
:4002C00081FF6FF00300FFF785FF68E03E4800F0D7FE64216FF0720000F04EFA6421002000F04AFA02222F4B9A7058E02D4C201D00F0EEF9207900F0C7F90346334A2021EB
:40030000684602F077F9684600F0BAFE2479631EDBB2052B15D820252A460021684601F0C8FC204600F0B0F90346294A2946684602F060F9684600F045FF0322194B9A70BE
:400340002DE06FF00400FFF745FF0522154B9A7025E0144B187900F075FA1E4800F090FE0120FFF701FF0028FAD00E4C207900F077FA194800F084FE0423A3700FE0094B5D
:400380000022DA701A719A7009E0144800F078FE0422044B9A7002E00522024B9A7009B030BD00BFB481FF1F1840000020400000284000003040000008410000444000009D
:4003C00050400000584000006440000000400000744000008040000094400000A840000008B5FFF711FF28B9054800F049FEFFF713FFFCE7FFF7EEFE4FF0FF3008BD00BFDA
:40040000D84000002DE9F04104460D4616460021392000F0BFFCF0B9204600F04DFDE8B90121392000F0F6FC8046D0B900240BE06B1E37199C4201D1404600E0012000F09A
:4004400067FD38700134E4B2AC42F1D300F018FD0120BDE8F0810020BDE8F0810020BDE8F0810020BDE8F08110B584B0044601AA0B219520FFF7C6FF0246A0B19DF8071046
:400480009DF8063043EA012323809DF809109DF8083043EA012363809DF80B109DF80A3043EA0123A380104604B010BD42880388934238BF13468088984238BF184670479C
:4004C00038B505460C460D48FFF7F0FF002311E035F8132002FB00F2084931F81310B2FBF1F244F24F618A4228BF0A4624F813200133DBB2022BEBD938BD00BF0C410000BD
:400500002DE9F04782B00588B0F802A08488554501D3A84600E0D046A04500D2A046554501D8284600E05046A04200D92046C0EB080001F087F806460F46404601F082F83D
:4005400043A3D3E9002301F0E3F802460B463046394601F059FB002867D1284601F072F806460F46504601F06DF8804689464FF03332394B01F0CCF8CDE9000102460B469F
:400580003046394601F054FB78B1204601F05AF84FF03332304B01F0BBF802460B463046394601F045FB002841D14FF033322A4B3046394601F0ACF806460F4602460B469B
:4005C0004046494601F034FB70B1204601F03AF84FF03332204B01F09BF802460B464046494601F025FB20BB204601F02BF88046894602460B463046394601F0FBFA30B18B
:4006000042464B46DDE9000101F0F4FA98B9A54201D9A24511D8554501D2A5420FD355450FD9A2450FD300200EE000200CE001200AE0022008E0032006E0042004E0052033
:4006400002E0002000E0062002B0BDE8F08700BF9A9999999999A93F3333F33F013805280ED8DFE800F0030F0507090B042070470520704701207047032070470220704757
:400680000020704706207047013805280ED8DFE800F0030F0507090B064870470648704706487047064870470648704706487047064870471441000020410000284100000F
:4006C0003041000038410000D83F00001841000030B585B00546012000F00CFD642000F00FFE02A8FFF7C0FE044660B1694602A8FFF7E6FE6846FFF703FFFFF7AFFF2870D2
:40070000002000F0F7FC204605B030BD10B50446007800F035FC607800F026FCA07800F03BFCE07800F044FC10BD00BFC0F1640080B2C0EB001303FB00F3044880FB0320E9
:40074000DB17C3EB2030053080B27047AD8BDB68084B0340002B05DA013B6FEA43536FEA53530133002B03DA03F5006398B2704798B27047FF070080F8B52F4C80FB04233D
:400780000344C217C2EB23224FF4B47505FB120000B2284480FB04230344C217C2EB232305FB13031BB2DB0284FB03241C44DB17C3EB24239BB2214A1488A3423AD01C1BAF
:4007C000A4B223B2002B03DDA4F5006424B202E004F5006424B283EAE370A0EBE37084EAE472A2EBE472904200DC1C46002C01DD012501E04FF0FF350846002CB8BF64426B
:40080000A4B2FFF793FF074610E00C4C20882844FFF79EFF208000F00300094B03EB8000FFF774FF384600F06BFD3446631E9EB2002CEAD1F8BD00BFB7600BB6BA81FF1F33
:400840004041000008B5431EDBB2052B05D80138024B53F820300120984708BDCC80FF1F08B5431EDBB2052B05D80138024B53F820300020984708BDCC80FF1F014B18681C
:40088000704700BFBC81FF1F034900220B4643F8042B4A605A607047BC81FF1F10B50446FFF7F2FF0B49204601F0E8FE88B10A4A1060002405E0611C074B03EB8404626034
:4008C000CCB20449002001F0D9FE024608B1012CF1D910BD54410000BC81FF1F38B50A2801D113788BB113787E2B02D85C1C1470C8540A2801D00D2807D11446084613786F
:400900000025CD54FFF7CAFF257038BD08B507E000F098FB054901F10C021031FFF7DEFF00F096FB0028F3D108BD00BFBC81FF1F08B507E000F028FC054901F19002943104
:40094000FFF7CCFF00F026FC0028F3D108BD00BFBC81FF1F08B5054800F0BEFB044800F05DFC00F061FB00F001FC08BD0D0900003109000070B584B000238DF80F300028DB
:4009800001DA424200E002460A2100E031464E1E0F4BA3FB0243DB081C4603EB83035D00531B303304AA0A4402F80C3C2246002CECD1002805DA04AB1E442D2306F80C3C61
:4009C0008E1E701C01AB184400F05AFB04B070BDCDCCCCCCFEE700BFF0B40022174611E050F82760F3B226F0FF0608E001EB420511F812406D78A5550132013BDBB2002B9D
:400A0000F4D10137192FEBD9F0BC70470C4B1B78DBB203F007010B4A11701B09013213700122094B1A701023084A13702021033211702D3213704422054B1A70704700BF90
:400A4000CF0100496E5800400D510040285B00407658004008B50A46002101F02AF908BD08B501F01BF908BD38B533222F4B1A8018232F4A13704FF49C7102321180023284
:400A8000137004222B492C48FFF7EAFF02222B4B1A7008224FF040231A70032103F500731970274B1B78DBB226490B70264B1A8041F25122023B1A80002419250CE0234B74
:400AC0001B7803F0010343EA440404F003044FF4F07000F055FC013D0DB1032CEFD115B90320FFF777FF1A4B4FF480721A8007221A70002217490A704820023108701A7050
:400B00000222033B1A7004220A331A70124A137843F003031370013A137843F001031370013A137843F08003137038BD8040004082400040B40600480041004000430040BD
:400B400008010049A146004022420040254200400440004006400040A243004038B572B63A4A137843F00403137000240CE0384D630019194A0011462A4408469188285881
:400B8000FFF768FF0134E4B2072CF0D900240BE02F49A3001819420088188022416B006BFFF75EFF0134E4B2002CF1D029494FF09040FFF711FF284A137843F002031370D1
:400BC0001032137843F002031370244C237843F040032370A2F58632513A137843F01003137008221E491F48FFF73AFF0A221E491E48FFF735FF08221D491E48FFF730FFC6
:400C000008221D491D48FFF72BFF08221C491D48FFF726FF0A221C491C48FFF721FF1C4A137843F0080313701A4D61232B70FFF71BFF81232B700122174B1A70FFF7E6FE15
:400C40000E2221461548FFF70BFF38BDE8460040584100006800004803500140A04300407C0600480251004084060048C051004090060048F25100409806004812510040B3
:400C8000A006004822510040A806004830510040224300400048004004000840B043004008B500F0CFFF03680C2B00D1FEE7FEE708B5094B1A681044084BC31AB3F5007F3A
:400CC00002DC054B186005E000F0BCFF0C2303604FF0FF32104608BDE480FF1FF082FF1F08B5104E104D16E029686B68AC68002204E051F8040B43F8040B0432A242F8D11E
:400D0000E868002203E0002143F8041B04328242F9D11035013E002EE6D100F099FFFFF75FFBFEE7010000001843000008B5104A104B1A60104A136843F40073136000239C
:400D40000AE0032B03D80D4A52F8231000E00C490C4A42F8231001332F2BF2D90A4B1A780A4B1A70074A0A4B1A60FFF7F7FE08BD0004FA050CED00E014ED00E00000000008
:400D8000A10C00000080FF1FBC760040C080FF1F08ED00E01A4B1B78DBB2102B29D1194B1B7813F0080F26D14FF40042164B1A604000C0B229B140F001004922104B1A7014
:400DC00002E045220E4B1A70104B1870012201331A700F4B1B7813F0010FFAD00C4B1B7803F00A030A2B08D11022054B1A700320704702207047012070470020704700BF14
:400E0000DC82FF1FD949004080E100E0D8490040D7490040164B1B7813F0040F23D04000C0B229B140F001004922124B1A7002E04522104B1A70104B1870122201331A70C3
:400E40000422023B1A700D4B1B7813F0010FFAD00A4B1B7803F00A030A2B06D11022054B1A7003207047022070470020704700BFD9490040DC82FF1FD8490040D7490040D5
:400E80000A4B1B7813F0040F0ED01023074A13700421023A1170064A1370064B1B7813F0210FFAD00020704702207047D9490040DC82FF1FD7490040114B1B7813F0040FC6
:400EC0001BD0104B18700422013B1A7046220E4B1A700E4B1B7813F0010FFAD00B4B1B7813F0020F04D16022074B1A70002070476022054B1A70032070470220704700BF4F
:400F0000D9490040D8490040DC82FF1FD7490040114B1B7813F0040F1BD0104B1B78DBB2492B05D100220E4B1A704A220B4B1A700B4B1B7813F0010FFAD00A4B1B78DBB2D1
:400F400018B11021064A117004E06021034A117000E0002318467047D9490040DC82FF1FD7490040D8490040044A137803F0DF03400100F02000184310707047205100407A
:400F8000044A137803F0F703C00000F0080018431070704720510040044A137803F0EF03000100F0100018431070704720510040044A137803F0BF03800100F040001843D4
:400FC00010707047205100407222084B1A702022FD331A700622A3F25F131A70472210331A7000224F331A70704700BF8764004010B500F0CDF904460A4A137843F02003E4
:401000001370FD32137843F010031370A2F58072137843F01003137000F056F9204600F0BBF910BD9764004008B5054B1B7823B9FFF7CAFF0122024B1A70FFF7D9FF08BDB4
:40104000D082FF1F014B1878704700BF47650040044B1B7813F0200F01D0012070470020704700BF64650040034B1B7813F0040FFAD1024B18707047646400404464004028
:4010800038B5074B1B782BB938BDFFF7EDFF0134A4B201E005460024285D0028F5D138BDD082FF1F014B1B685864704708ED00E04001C0B2014B1870704700BF01E400E017
:4010C0000222014B1A60704700E100E00222014B1A60704780E100E010B50446FFF7F6FF2046FFF7DFFF0720FFF7E2FFFFF7E8FF10BD00BF044A137803F0FD03400000F015
:401100000200184310707047205100407222084B1A70202201331A700622A3F25F131A70472210331A7000224F331A70704700BF8565004010B500F02BF904460A4A13783A
:4011400043F0200313700132137843F010031370A2F58072137843F01003137000F0C2F8204600F019F910BD9565004008B5054B1B7823B9FFF7CAFF0122024B1A70FFF7EE
:40118000D9FF08BDD282FF1F014B1878704700BF46650040044B1B7813F0200F01D0012070470020704700BF66650040034B1B7813F0040FFAD1024B18707047666400402D
:4011C0004664004038B5074B1B782BB938BDFFF7EDFF0134A4B201E005460024285D0028F5D138BDD282FF1F014B1B681864704708ED00E04001C0B2014B1870704700BFEF
:4012000000E400E00122014B1A60704700E100E00122014B1A60704780E100E010B50446FFF7F6FF2046FFF7DFFF0720FFF7E2FFFFF7E8FF10BD00BF044A137803F0FE0340
:4012400000F0010018431070704700BFF0510040044A137803F0FD03400000F00200184310707047F0510040044A137803F0FB03800000F00400184310707047F051004049
:40128000044A137803F0F703C00000F00800184310707047F0510040044A137803F0EF03000100F01000184310707047F0510040044A137803F0DF03400100F02000184371
:4012C00010707047F0510040054A137843F0010313701032137843F001031370704700BFA2430040054A137843F0020313701032137843F002031370704700BFA2430040C8
:4013000010B5044605E0084B186800F039F8A4F50044B4F5004FF6D8034B586800FB04F000F02EF810BD00BFE880FF1F08B5034B1B7A00FB03F000F023F808BDE880FF1F19
:4013400010B5074B1B7813F0010401D10028F8D024B10120FFF7EAFF014B1B78204610BD09590040034B188880B2034B1B88C01A00B27047A25B0040E282FF1F000000005D
:401380000230800803D000BF01380046FCD17047EFF3108072B6704780F31088704700BF81F0004102E000BF83F0004330B54FEA41044FEA430594EA050F08BF90EA020F3B
:4013C0001FBF54EA000C55EA020C7FEA645C7FEA655C00F0E2804FEA5454D4EB5555B8BF6D420CDD2C4480EA020281EA030382EA000083EA010180EA020281EA0303362D0E
:4014000088BF30BD11F0004F4FEA01314FF4801C4CEA113102D0404261EB410113F0004F4FEA03334CEA133302D0524263EB430394EA050F00F0A780A4F10104D5F1200E16
:401440000DDB02FA0EFC22FA05F2801841F1000103FA0EF2801843FA05F359410EE0A5F120050EF1200E012A03FA0EFC28BF4CF0020C43FA05F3C01851EBE37101F0004530
:4014800007D54FF0000EDCF1000C7EEB00006EEB0101B1F5801F1BD3B1F5001F0CD349085FEA30004FEA3C0C04F101044FEA445212F5800F80F09A80BCF1004F08BF5FEA4F
:4014C000500C50F1000041EB045141EA050130BD5FEA4C0C404141EB010111F4801FA4F10104E9D191F0000F04BF01460020B1FA81F308BF2033A3F10B03B3F120020CDA27
:401500000C3208DD02F1140CC2F10C0201FA0CF021FA02F10CE002F11402D8BFC2F1200C01FA02F120FA0CFCDCBF41EA0C019040E41AA2BF01EB0451294330BD6FEA040437
:401540001F3C1CDA0C340EDC04F11404C4F1200220FA04F001FA02F340EA030021FA04F345EA030130BDC4F10C04C4F1200220FA02F001FA04F340EA0300294630BD21FA71
:4015800004F0294630BD94F0000F83F4801306BF81F480110134013D4EE77FEA645C18BF7FEA655C29D094EA050F08BF90EA020F05D054EA000C04BF1946104630BD91EAC5
:4015C000030F1EBF0021002030BD5FEA545C05D14000494128BF41F0004130BD14F580043CBF01F5801130BD01F0004545F0FE4141F470014FF0000030BD7FEA645C1ABF75
:40160000194610467FEA655C1CBF0B46024650EA013406BF52EA033591EA030F41F4002130BD00BF90F0000F04BF0021704730B54FF4806404F132044FF000054FF000013B
:4016400050E700BF90F0000F04BF0021704730B54FF4806404F1320410F0004548BF40424FF000013EE700BF42004FEAE2014FEA31014FEA02701FBF12F07F4393F07F4FBA
:4016800081F06051704792F0000F14BF93F07F4F704730B54FF4607401F0004521F0004120E700BF50EA010208BF704730B54FF000050AE050EA010208BF704730B511F02C
:4016C000004502D5404261EB41014FF4806404F132045FEA915C3FF4DCAE4FF003025FEADC0C18BF03325FEADC0C18BF033202EBDC02C2F1200300FA03FC20FA02F001FA1A
:4017000003FE40EA0E0021FA02F11444C1E600BF70B54FF0FF0C4CF4E06C1CEA11541DBF1CEA135594EA0C0F95EA0C0F00F0DEF82C4481EA030621EA4C5123EA4C5350EA89
:40174000013518BF52EA033541F4801143F4801338D0A0FB02CE4FF00005E1FB02E506F00042E0FB03E54FF00006E1FB03569CF0000F18BF4EF0010EA4F1FF04B6F5007FE8
:4017800064F5407404D25FEA4E0E6D4146EB060642EAC62141EA55514FEAC52040EA5E504FEACE2EB4F1FD0C88BFBCF5E06F1ED8BEF1004F08BF5FEA500E50F1000041EBE3
:4017C000045170BD06F0004646EA010140EA020081EA0301B4EB5C04C2BFD4EB0C0541EA045170BD41F480114FF0000E013C00F3AB8014F1360FDEBF002001F0004170BD8D
:40180000C4F10004203C35DA0C341BDC04F11404C4F1200500FA05F320FA04F001FA05F240EA020001F0004221F0004110EBD37021FA04F642EB06015EEA430E08BF20EAD2
:40184000D37070BDC4F10C04C4F1200500FA04F320FA05F001FA04F240EA020001F0004110EBD37041F100015EEA430E08BF20EAD37070BDC4F1200500FA05F24EEA020EAC
:4018800020FA04F301FA05F243EA020321FA04F001F0004121FA04F220EA020000EBD3705EEA430E08BF20EAD37070BD94F0000F0FD101F00046400041EB010111F4801FD1
:4018C00008BF013CF7D041EA060195F0000F18BF704703F00046520043EB030313F4801F08BF013DF7D043EA0603704794EA0C0F0CEA135518BF95EA0C0F0CD050EA4106E6
:4019000018BF52EA4306D1D181EA030101F000414FF0000070BD50EA410606BF1046194652EA430619D094EA0C0F02D150EA013613D195EA0C0F05D152EA03361CBF10465C
:4019400019460AD181EA030101F0004141F0FE4141F470014FF0000070BD41F0FE4141F4780170BD70B54FF0FF0C4CF4E06C1CEA11541DBF1CEA135594EA0C0F95EA0C0FDC
:4019800000F0A7F8A4EB050481EA030E52EA03354FEA013100F088804FEA03334FF0805545EA131343EA12634FEA022245EA111545EA10654FEA00260EF000419D4208BF99
:4019C000964244F1FD0404F5407402D25B084FEA3202B61A65EB03055B084FEA32024FF480104FF4002CB6EB020E75EB030E22BFB61A754640EA0C005B084FEA3202B6EB19
:401A0000020E75EB030E22BFB61A754640EA5C005B084FEA3202B6EB020E75EB030E22BFB61A754640EA9C005B084FEA3202B6EB020E75EB030E22BFB61A754640EADC00AB
:401A400055EA060E18D04FEA051545EA16754FEA06164FEAC30343EA52734FEAC2025FEA1C1CC0D111F4801F0BD141EA00014FF000004FF0004CB6E711F4801F04BF01430B
:401A80000020B4F1FD0C88BFBCF5E06F3FF6AFAEB5EB030C04BFB6EB020C5FEA500C50F1000041EB045170BD0EF0004E4EEA113114EB5C04C2BFD4EB0C0541EA045170BDA7
:401AC00041F480114FF0000E013C90E645EA060E8DE60CEA135594EA0C0F08BF95EA0C0F3FF43BAF94EA0C0F0AD150EA01347FF434AF95EA0C0F7FF425AF104619462CE713
:401B000095EA0C0F06D152EA03353FF4FDAE1046194622E750EA410618BF52EA43067FF4C5AE50EA41047FF40DAF52EA43057FF4EBAE12E74FF0FF3C06E000BF4FF0010CBF
:401B400002E000BF4FF0010C4DF804CD4FEA410C7FEA6C5C4FEA430C18BF7FEA6C5C1BD001B050EA410C0CBF52EA430C91EA030F02BF90EA020F0020704710F1000F91EA67
:401B8000030F58BF994208BF90422CBFD8176FEAE37040F0010070474FEA410C7FEA6C5C02D150EA013C07D14FEA430C7FEA6C5CD6D152EA033CD3D05DF8040B704700BFE9
:401BC0008446104662468C461946634600E000BF01B5FFF7B7FF002848BF10F1000F01BD4DF808EDFFF7F4FF0CBF012000205DF808FB00BF4DF808EDFFF7EAFF34BF0120D2
:401C000000205DF808FB00BF4DF808EDFFF7E0FF94BF012000205DF808FB00BF4DF808EDFFF7CEFF94BF012000205DF808FB00BF4DF808EDFFF7C4FF34BF012000205DF88F
:401C400008FB00BF014B1868704700BF5881FF1F0E4B70B51E460E4C0025E41AA410A54204D056F8253098470135F8E702F042FB084B094C1E46E41AA4100025A54204D037
:401C800056F8253098470135F8E770BD0043000000430000004300000843000010B5431E0A44914204D011F8014B03F8014FF8E710BD03460244934202D003F8011BFAE7B7
:401CC00070472DE9F04788B0149F002B1E461299B8BF03F1004327F02007B6BF1E4600232D23462F1446109DDDF84CA00B7003D0452F03D1013501E0032300E0022307AABD
:401D0000049206AA03928DE828042246334600F0B3FD472F804602D1119BDB0728D5462F08EB050911D198F80030302B0AD10022002320463146FFF753FF18B9C5F10105C7
:401D4000CAF80050DAF8003099440022002320463146FFF745FF08B9302202E0CDF81C9006E0079B994503D9591C07911A70F8E74046079B159AC8EB0303136008B0BDE898
:401D8000F087034673B50029B8BF494203F8022BB4BF2D222B22092942701ADD0DF1070216460A2591FBF5F405FB1411092C01F1300102F8011D2146F4DC3031541E02F85E
:401DC000011CB4421A460AD214F8012B03F8012BF7E71A463024214402F8024B5970101A02B070BD2DE9F04F91B00C46DDF8688016461F46054601F0E9FA0368184609933B
:401E000000F034FC00230E93D8F800300A90073323F0070303F1080294F81890D4F800B0C8F80020D3E90023C4E91223D4F84CA0D4F848802AF000430B934FF0FF32A74BD5
:401E400040460B9902F016F8A0B94FF0FF32A34B40460B99FFF7D8FE60B90022002340465146FFF7C7FE10B12D2384F843309C4B9C4A0AE0424653464046514601F0FAFF76
:401E8000002800F09281984B984AB9F1470F8CBF90469846032323612BF0040323604FF0000A3DE0B9F1670F00F08A81B9F1470F00F0868123600193636800210DF1330236
:401EC000059002920093424653460691CDF81090CDF80CE02846FFF7F4FE09F0DF03472B804600F08481B9F1650F0D9900F28D8101394A4604F150000D91FFF742FF0E9AAA
:401F000082468318012A236100F37C812268D10700F178819DF8333013B12D2384F84330009733460FAA2146284600F09FF9013002D14FF0FF3096E123685A0501D42369FE
:401F400065E0B9F1650F40F2D580D4E9120100220023FFF745FE78B30123654A31462846B8470130E5D00E9B0D9A9A420BDB2368D80708D423689B0740F111814FF00008D2
:401F800004F1190906E10A9B099A31462846B8470130CED04FF0000804F11A090E9B013B9845E7DA01234A4631462846B8470130BFD008F10108F1E70D9B002B29DC012318
:401FC0004B4A31462846B8470130B2D00D9B23B90E9B13B92368D907CCD50A9B099A31462846B8470130A4D04FF0000904F11A0A0D9B5B42994509DA0123524631462846D7
:40200000B847013095D009F10109F1E70E9B4246A7E00E9AA36D9A42A8BF1A46002A914606DC4FF0000A29EAE97904F11A0B11E01346314642462846B8470130F1D178E759
:4020400001235A4631462846B84701303FF471AF0AF1010AA36DC9EB03029245F0DB08EB03090D9A0E9B9A420FDB2368DA070CD40E9B0D9A9844C9EB08089B1A9845A8BF79
:402080009846B8F1000F08DC0FE00A9B099A31462846B8470130EBD14BE743464A4631462846B84701303FF444AF4FF0000928EAE87804F11A0A09E00123524631462846BB
:4020C000B84701303FF435AF09F101090D9A0E9B9B1AC8EB03039945EEDB4BE7FFFFEF7F94410000984100009C410000A0410000A44100000E9A012A01DCDB0738D501237E
:40210000424631462846B84701303FF412AF0A9B099A31462846B84701303FF40AAFD4E9120100220023FFF75BFD20B14FF0000804F11A090EE00E9B08F10102013B19E06A
:4021400001234A4631462846B84701303FF4F1AE08F101080E9B013B9845F1DB534604F1500231462846B84701307FF403AFE0E64246012331462846B8470130EED1D8E616
:4021800001234A4631462846B84701303FF4D1AE08F10108E3680F9A9B1A9845F0DBE0680F9B9842B8BF18465DE062680EA8531C0DF1340E4BF480637FF474AE062201E084
:4021C00012B90122626075E6002106910DF133018DE80C00236005904246CDF81090CDF80CE0029153462846FFF76BFD80460D9BD81C02DB626893421DDDA9F102095FFAE5
:4022000089F970E60133236184E6B9F1660F14D10029636807DD216113B92268D2071DD501330B4419E013B92268D00701D5023313E0012311E04FF067090D9B0E9A934295
:4022400005DB22682361D10708D5013305E0002BD4BFC3F102030123134423610D9B4FF0000AA36556E611B0BDE8F08F2DE9F04791461F460A698B6806469342B8BF134632
:40228000C9F8003091F843200C46DDF8208012B10133C9F800302368990642BFD9F800300233C9F80030256815F0060510D104F1190A07E00123524639463046C0470130DA
:4022C0001AD00135E368D9F800209B1A9D42F1DB94F843302268003318BF012392060FD5E118302081F843005A1C94F845102244023382F8431003E04FF0FF30BDE8F087BE
:4023000004F1430239463046C0470130F4D02268D9F80050E36802F00602042A08BF5D1B2269A3680CBF25EAE57500259342C4BF9B1AED184FF000091A344D4509D00123EF
:40234000224639463046C0470130D5D009F10109F3E70020BDE8F0872DE9F04317460A7E85B06E2A984606460C460C9B01F1430E00F0AE8011D8632A22D009D8002A00F027
:40238000BB80582A40F0CA8081F84520834955E0642A1ED0692A1CD0C0E0732A00F0B08009D86F2A2ED0702A40F0B8800A6842F020020A603EE0752A24D0782A3AD0ADE01B
:4023C0001A6801F14205111D1960136884F84230A8E021681A6811F0800F02D0111D196008E011F0400F02F10401196002D0B2F9003000E01368002B3CDA2D225B4284F81C
:40240000432037E021681A6811F0800F02D0111D196007E011F0400F02F10401196001D0138800E01368227E5C496F2A14BF0A2208221BE078225A4984F845202268186875
:4024400012F0800F00F104051D6003D1550601D5038800E00368D00744BF42F0200222601BB9226822F0200222601022002084F8430001E049490A226568002DA56008DB23
:40248000206820F0040020602BB9002D7DD175460CE0002B79D07546B3FBF2F002FB1033CB5C05F8013D03460028F5D1082A0BD12368DA0708D5236962689A42DEBF3023E9
:4024C00005F8013C05F1FF35C5EB0E0323612EE008681A6810F0800F496903D0101D1860136808E010F0400F02F104001860136801D0198000E0196000232361754616E0C3
:402500001A68111D1960156800216268284600F069FF08B1401B6060636804E004F1420584F8422001232361002384F84330CDF800803B4603AA21463046FFF797FE0130E1
:4025400002D14FF0FF3026E023692A4639463046C0470130F5D023689B0710D5002504F1190907E001234A4639463046C0470130E7D00135E368039A9B1A9D42F2DBE06892
:40258000039B9842B8BF184605E00B7804F1420584F842308AE705B0BDE8F083A6410000B741000038B5124B05461C68A36BD3B9182000F00FFF43F20E33A06303804AF6FA
:4025C000CD33438041F2342383804EF26D63C3804DF6EC630381052343810B23838101220023C0E90423A36B00221D615A6138BD5881FF1F0CB430B5164B0C1E9DB01D6897
:4026000004DA8B232B604FF0FF301EE04FF40273ADF814300CBF234604F1FF33049307934FF6FF7302900690ADF81630209A21AB02A92846019301F0CBFA431CBCBF8B23AF
:402640002B6014B1029B00221A701DB0BDE8304002B070475881FF1F10F8012B11F8013B012A28BF9A42F7D0D01A7047034613F8012B002AFBD1181A01387047174B2DE9A0
:40268000F0411D680646AC6D0F46FCB9502000F0A1FEA8658460AB6D046044601C61DC60AB6D9C615C61AB6DDC629C62AB6D5C631C63AB6DDC639C63AB6D5C641C64AB6DEA
:4026C000DC649C64AB6D1C77AB6D5C62AA6D39463046BDE8F041012300F002B85881FF1FF0B548B9106838B9F0BD17F8016B5EB1B542FAD12BB1204604460F4614F8015B21
:40270000F3E714600370F0BD4DB915602846F0BD17F8016BB54207D0002EF9D11C4623460F4613F8015BF3E715B10021217000E02B461360F0BD000013B5084B0446002283
:402740001868694600F030FE0028BCBF4FF0FF330093009804B1206002B010BD5881FF1F2DE9F74F03690C6980469C427FDC013C01F114074FEA840E00F1140606EB0E03C4
:4027800057F82450019356F824300135B3FBF5F507EB0E09C5B34FF0000A3846B446D34650F8043B9AB205FB02A21B0C4FEA124A05FB03A392B2C2EB0B0BBCF800204FEA0A
:4027C000134A5A441FFA83FBDCF800308145CBEB134303EB224392B242EA03424FEA234B4CF8042BDCD256F80E306BB9019B043B9E421A4602D3C8F8104005E01268043B53
:40280000002AF8D1013CF3E7404601F006F800282BDB304601354FF0000E57F8042B036891B2C1EB0E0E120C99B27144C2EB134303EB214389B24FEA234EB94541EA034337
:4028400040F8043BE9D256F8242006EB840362B9043B9E421A4602D3C8F8104005E01268043B002AF8D1013CF3E7284600E0002003B0BDE8F08F00002DE9F04F456A95B067
:402880008246219CCDE9022345B9102000F0A2FDCAF82400456085600560C560DAF82430196859B15A68012393404A608B60504600F0DBFDDAF8243000221A60039BA04A5A
:4028C000002BBDBF01232360039B0023BCBF23F000430393DDF80C80A8BF236028F000431B0D1B0593421DD142F20F73209A1360029B43B9934A944BC8F31300002814BFB0
:402900001846104600E09048229B002B00F04685C37813B100F1080300E0C31C229A136000F03CBDDDE902450022002320462946FFF756F9074658B1209A01231360229BE6
:40294000002B00F01E8581481860013800F026BD12AB019313AB009322462B46504600F0D7FFC8F30A56049056B1C5F3130343F07F51204641F44011A6F2FF3611971DE090
:40298000139B129E1E4406F23243202B0ADD029A06F21240C3F1400322FA00F008FA03F3184304E0C3F12000029B03FA00F0FEF739FE0123A1F1F871013E11930022644B3B
:4029C000FEF7F2FC58A3D3E90023FEF7A1FE58A3D3E90023FEF7EAFC044630460D46FEF731FE55A3D3E90023FEF792FE02460B4620462946FEF7DAFC04460D4601F050FA2D
:402A000000228346002320462946FFF7F3F858B15846FEF717FE02460B4620462946FFF7DFF808B90BF1FF3BBBF1160F0DD8DDE90223484901EBCB01D1E90001FFF7F8F864
:402A400030B10BF1FF3B002300E00123109300E01090129B9E1B731E079343BFC3F10008002307934FF00008BBF1000F06DB079BCDF82CB05B440793002705E00023CBEBA5
:402A80000808CBF100070B931E9B092B28D8052BC4BF043B1E931E9BC8BF0025A3F10203D8BF0125032B20D8DFE803F0060E0204012302E0012308E000230A931F9B002BA9
:402AC0001DDD9946059321E000230A931F9B0BEB030909F10103012B0593B8BF012315E0012500231E930A9501E001230A934FF0FF390022CDF8149012231F9206E04FF04E
:402B000001094B46CDF81490CDF87C90DAF8244000226260042101F114029A421CD86268490001326260F6E761436F63A787D23FB3C8608B288AC63FFB799F501344D33F26
:402B40000000F07FC8410000D1410000A54100000000F83FE04100006168504600F050FCDAF8243020601B680693059B0E2B00F25B81002D00F05881DDE90234BBF1000FDC
:402B8000CDE90E3430DD9F4A0BF00F034FEA2B1502EBC303E80618CBCDE908340CD5DDE90E01994B05F00F05D3E90823FEF7DAFE0324CDE9020100E00224934E6DB1E907FF
:402BC00008D5DDE90801D6E90023FEF7A1FDCDE9080101346D100836F0E7DDE90823DDE90201FEF7BFFE20E0CBF1000505B3DDE90E01844B05F00F0203EBC203D3E900230D
:402C0000FEF786FDCDE902017F4E2D110023022455B1EA0705D5D6E90023FEF779FD013401236D100836F3E71BB1CDE9020100E00224109BE3B1DDE902560022734B2846CD
:402C40003146FEF7D7FF98B1059B8BB1B9F1000F40F3E6800BF1FF330893314600226C4B2846FEF755FD0134CDE902014E4602E0059ECDF820B02046FEF7E4FCDDE902230B
:402C8000FEF746FD634B0022FEF790FBA1F1507304460C931D46D6B9DDE9020100225E4BFEF782FB22460C9BCDE90201FEF7C0FF002840F03F820C99224601F10043DDE9B9
:402CC0000201FEF797FF002840F02B82A8E00A9A4C4B711E002A49D003EBC103D3E9002300204E49FEF73EFE22462B46FEF75CFBCDE90C01069CDDE9020101F0D1F80546DB
:402D0000FEF7A0FC02460B46DDE90201FEF74CFBDDE90C23303504F8015BCDE90201FEF769FF002840F01D83DDE9022300203749FEF73AFBDDE90C23FEF75CFF002840F052
:402D4000D180069BE31AB3426ADADDE90C0100222F4BFEF7DDFC0022CDE90C01DDE902012B4BFEF7D5FCCDE90201C4E703EBC1012246D1E900012B46FEF7CAFC069BCDE94A
:402D80000C011D469C19DDE9020101F089F80646FEF758FC02460B46DDE90201FEF704FB303605F8016BAC42CDE902014FF0000222D11A4BDDE90C01FEF7F8FA02460B4666
:402DC000DDE90201FEF734FF002840F08B80DDE90C2300201149FEF7E7FA02460B46DDE90201FEF707FFD8B114F8013C621E302B40F0B7821446F7E7054BFEF789FCCDE90F
:402E00000201C0E7E0410000B84200000000F03F0000244000001C40000014400000E03FDDE90E34CDE90234139B002B7CDBBBF10E0F79DCAB4B03EBCB03D3E900671F9B9A
:402E4000002B14DA059B002B11DC40F06C810022A54B30463946FEF75BFCDDE90223FEF7DDFE059D2E46002840F05F8165E1069CDDE9028932463B4640464946FEF772FD5D
:402E800001F00EF80546FEF7DDFB32463B46FEF73FFC0B46024649464046FEF785FA05F1300E069B04F801EBC3EB040E059B73452DD102460B46FEF779FA80468946024607
:402EC0000B4630463946FEF795FE78B942464B4630463946FEF784FE002800F04482EB0704D440E2DDF820B000E01C4614F8012C631E392A07D1069A9A42F6D10699302274
:402F00000BF1010B0A701A7801321A702BE20022764BFEF7FDFB0022002380468946FEF75FFE0028A6D01EE20A9A002A2BD01E9A012A0ADC119A12B103F2334302E0129B1F
:402F4000C3F136033D46444613E0059B5D1EAF42BFBF0B9BEA1B9B180B93059BB6BF2F467D1B0025002BA7BF4446059BC3EB08040023079A01211A4450469844079200F0E3
:402F800013FB064602E03D4644460A9E5CB1079B002B08DDA342A8BF2346079AC3EB0808E41AD31A0793002F1DDD0A9BABB18DB131462A46504600F091FB049A0146064636
:402FC000504600F0FAFA04990890504600F04DFA089B04937A1B06D000E03A460499504600F07CFB04900121504600F0DDFA0B9B05465BB31A460146504600F06FFB1E9B54
:403000000546012B18DC029B83B9039BC3F3130373B9039B23F000473F0D3F054FB1079B08F1010801330793012702E0002700E0029F0B9B73B100E000272B6905EB83032F
:40304000186900F064FAC0F1200004E01E9B012BD9DD0B9F0120079B184410F01F0008D0C0F12003042B02DDC0F11C0002E006D018461C30079B8044034404440793B8F128
:40308000000F05DD42460499504600F075FB0490079B002B05DD29461A46504600F06CFB0546109B23B32946049800F0B6FB00281EDA00230A220499504600F0EDF90A9B70
:4030C0000BF1FF3B0490002B00F05F81314600230A22504600F0E0F9B9F1000F06463FDC3BE000BFE04100000000144000002440059B002B2BDC1E9B022B28DDDDF81490DD
:40310000B9F1000F11D129464B460522504600F0C3F901460546049800F07FFB00280CDC03E0354600E000252E461F9B069C6FEA030B09E03546DDF820B0069B069A5C1C87
:40314000312313700BF1010B05960026F7E00A9BDDF8149023B9069CB2E01E9B022BCFDC002C05DD31462246504600F005FB06469FB17168504600F043F90446326906F193
:403180000C01023292000C30FEF788FD01222146504600F0F1FA059000E00596029B069F03F00103079329460498FFF7D9FA3146044600F13008049800F02FFB059A029003
:4031C0002946504600F045FBC36802463BB901460A90049800F021FB0A9A034600E00123114650460A9300F040F90A9B53B91E9A42B9079A32B9B8F1390F2AD0029B002B63
:403200001CDC1DE0029A002A04DB1BD11E9ACAB9079ABAB9002B13DD01220499504600F0ABFA2946049000F0F8FA002803DC07D118F0010F04D0B8F1390F0AD004F131080A
:403240007C1C0CE0002B07F101040BDDB8F1390F03D139233B70013756E008F1010887F800806CE0069B2746E31A4B4504F8018C3BD000230A220499504600F00DF9059BEC
:4032800004909E424FF00A024FF000033146504604D100F001F90646059084E700F0FCF8002306460A220599504600F0F5F8059079E700230A220499504600F0EDF8049085
:4032C00029460498FFF74CFA069B00F1300804F8018BE31A4B45ECDB069B0596B9F1010FACBF4B4401331F46002601220499504600F042FA2946049000F08FFA002803DC2D
:4033000015D118F0010F12D03C4614F8013C621E392B09D1069B934204D10BF1010B3123069A02E01446F0E70133137007E03C4614F8013C621E302B01D11446F8E729460C
:40334000504600F092F8059B6BB12EB19E4203D03146504600F089F80599504600F085F801E0DDF820B00499504600F07EF80023209A23700BF101031360229B1BB11C60C9
:4033800001E008480AE0069808E0B9F1000F3FF7E2AE1E9B022B7FF7DEAEB1E615B0BDE8F08F00BFA441000038B5074C0023054608461146236000F09BFD431C02D12368C6
:4033C00003B12B6038BD00BFEC82FF1F004870475C81FF1F024B0146186800F041BB00BF5881FF1F10B5C9B202449042034605D01C7801308C42F8D1184610BD002010BDB4
:4034000070B5456A04460E463DB91020FFF7E2FF6062456085600560C560656AEB6843B1636ADB6853F8260078B1026843F8262017E021220421204600F0B8FA636AE86020
:40344000DB68002BECD1002070BD012101FA06F56A1D9200204600F0A9FA0028F3D04660856000230361C36070BD70B5446A06460D463CB91020FFF7ADFF706244608460CA
:403480000460C4603DB1736A6A68DB6853F82210296043F8225070BD2DE9F04106460C460D691F4601F1140E0023DEF80000013381B202FB0171000C0F0C02FB007089B252
:4034C00001EB00419D424FEA10474EF8041BECDCD7B1A3689D4212DB616830460131FFF78FFF8046226904F10C01023292000C30FEF7D4FB21463046FFF7B7FF444604EB94
:40350000850301355F6125612046BDE8F081030C1B0413B90004102300E0002310F07F4F04BF0002083310F0704F04BF0001043310F0404F04BF80000233002803DB420000
:4035400003D5581C70471846704720207047036813F007020BD0D90722D49A074BBF5B089B08036003604CBF01200220704799B209B91B0C102213F0FF0F04BF1B0A0832FF
:40358000190704BF1B090432990704BF9B080232D90702D45B0805D00132036010467047002070472020704710B50C460121FFF727FF01224461026110BD2DE9F74F144632
:4035C0000A69236988469A42BEBF0B46A0461C46D8F81070D4F81090D8F80830D8F8041007EB09069E42C8BF0131FFF709FF00F114052B4605EB860C0022634502D243F8F6
:40360000042BFAE704F1140208F1140102EB890301EB87070093009B0192934257D9B2F800B0BBF1000F23D08946AE464FF0000859F8044BBEF800A0A3B20BFB03A34FEA66
:40364000144ADEF8004043444FEA14480BFB0A84F24604EB13449BB243EA04434F454FEA14484AF8043B01D9D646E1E7CEF80480019B0432B3F802A0BAF1000F21D02C46F9
:4036800089462B684FF00008B9F800E0B4F802B09BB20AFB0EBEA346F04443EA08434BF8043B59F8043BB4F804E01B0C0AFB03E34F4503EB18434FEA134801D95C46E3E754
:4036C00063600435A7E75CF8043D13B9013E002EF9DC066103B0BDE8F08F00002DE9F843154612F0030206460F4607D0214C013A002354F82220FFF7CFFE0746AD1036D008
:40370000746A3CB91020FFF765FE7062446084600460C460D6F82480D8F808404CB940F271213046FFF740FF04460023C8F8080003604FF00008EB070AD539462246304640
:40374000FFF73BFF814639463046FFF78EFE4F466D100CD0206808B10446ECE7224621463046FFF72AFF2060C0F80080F4E73846BDE8F883A84200002DE9F0470C46074624
:40378000914626694FEA621A56444968A368751CAB4202DA01315B00FAE73846FFF730FE002380461A4600F11401534503DA41F823200133F9E72AEAEA73206901EB83036E
:4037C00019F01F0904F1140101EB800E14D0C9F1200C002208689A4600FA09F0024343F8042B51F8042B8E4522FA0CF2F2D8CAF8042042B1B51C06E0043B51F8042B8E45ED
:4038000043F8042FF9D8013D3846C8F810502146FFF72BFE4046BDE8F08703690A6910B59B1A11D192001430143183180A4453F8044D52F8041D8C4202D007D3012010BD97
:403840009842F4D3002010BD184610BD4FF0FF3010BD2DE9F8430C460746114620461546FFF7DBFF061E08D131463846FFF7C8FD012303614661BDE8F883BCBF23462C462A
:4038800038466168BABF1D4601260026FFF7B8FD2B69C660266905F1140904F1140101EB860709EB830800F114054FF0000C51F8042B59F8044B93B29C44A3B2240CC3EBCA
:4038C0000C03C4EB124202EB23429BB24FEA224CC84543EA02428E4645F8042BE7D8BE450ED25EF8041B8AB26244131403EB114392B242EA03424FEA234C45F8042BEEE7B2
:4039000055F8043D0BB9013EFAE70661BDE8F8832DE9F3411C4601219046089E099DFFF76FFDC4F31302C4F30A5407460CB142F480120192B8F1000F19D002A840F8088DDE
:40394000FFF705FE009B48B1019AC0F1200102FA01F10B43C2407B61019200E07B61019B002B14BF02210121BB61396107E001A8FFF7EDFD019B01217B613961203034B176
:40398000A4F2334404443460C0F1350009E0A0F2324007EB810330601869FFF7B8FDC0EB41102860384602B0BDE8F08138B502FB01F4214600F054F8054618B12246002130
:4039C000FEF777F9284638BD38B50546002944D051F8043C0C1F002BB8BFE41800F017FA1E4A1368114613B96360146030E0A3420DD92268A018834201BF18685B681218EB
:403A0000226063600C6023E0A24203D813465A68002AF9D118681918A1420BD12168014458188242196013D110685268014419605A600DE002D90C232B6009E0216860181F
:403A4000824201BF106852680918216062605C602846BDE8384000F0DBB938BDD882FF1F70B5CD1C25F0030508350C2D38BF0C25002D064601DBA94202D90C23336046E028
:403A800000F0C5F9234B1C681A462146A1B10B685B1B0ED40B2B03D90B60CC18CD501EE08C420BBF63684B681360636018BF0C4615E00C464968E9E7174C23681BB9304691
:403AC00000F07AF920602946304600F075F9431C18D0C41C24F00304A0420DD12560304600F096F904F10B00231D20F00700C31A0ED05A42E25070BD211A304600F05CF921
:403B00000130EBD10C233360304600F081F9002070BD00BFD882FF1FD482FF1F2DE9F0478E6882469E420C46914698463ED88A8912F4906F3AD02568096902236F1A656959
:403B400005EB450595FBF3F57B1C43449D4238BF1D4653050FD52946FFF782FF064698B13A462169FEF79AF8A38923F4906343F08003A38113E02A4600F04BF9064670B9D8
:403B800021695046FFF720FF0C23CAF80030A3894FF0FF3043F04003A381BDE8F08726613E44266046466561ED1BA560464528BF464649463246206800F00EF9A3680020C2
:403BC0009B1BA36023681E442660BDE8F08700002DE9F04F9DB003938B8980461C060D4616460DD50B695BB94021FFF739FF2860286118B90C23C8F80030CDE040236B61C4
:403C00000023099320238DF82930DFF89CB130238DF82A3037463C4614F8013B1BB9B7EB060910D003E0252BF9D02746F3E74B46324629464046FFF771FF013000F0A780B3
:403C4000099B4B4409933B78002B00F0A08000234FF0FF3204930793059206938DF853301A930126052221784E48FFF7BBFB671C049B38B14B4A3C46801A06FA00F01843AE
:403C80000490EFE7D90644BF20228DF853201A0744BF2B228DF8532022782A2A03D0079A00210A200BE0039A111D12680391002A10DA524243F00200079204900BE0274642
:403CC0003B780134303B092B03D800FB02320121F5E701B107923B782E2B1ED17B782A2B0AD1039B02371A1D1B680392002BB8BF4FF0FF33059310E0002319460593781C5D
:403D00000A2407463A780130303A092A03D804FB01210123F5E703B10591032239782248FFF760FB40B14023CBEB000003FA00F0049B013718430490397806221B487E1C1E
:403D40008DF82810FFF74EFB88B1194B33B9039B073323F007030833039314E003AB00932A46144B04A94046FEF73CF807E003AB00932A460F4B04A94046FEF7EDFAB0F1F6
:403D8000FF3F824603D0099B5344099342E7AB895B0601D4099801E04FF0FF301DB0BDE8F08F00BFE0420000E6420000EA420000E51D00001D3B000038B5064C00230546A3
:403DC00008462360FCF774FF431C02D1236803B12B6038BDEC82FF1F884210B501EB020301D8421E0BE09842FBD28118D21AD34204D013F8014D01F8014DF8E710BD99422F
:403E000004D011F8014B02F8014FF8E710BD70477047F8B5074615460E4621B91146BDE8F840FFF71DBE1AB9FFF7CEFD2846F8BD00F015F885420ED929463846FFF710FE1A
:403E4000044650B131462A46FDF728FF31463846FFF7BAFD01E03046F8BD2046F8BD51F8040C0028BEBF091851F8043CC0180438704700004FEA410C7FEA6C5C02D150EAF5
:403E8000013C0AD14FEA430C7FEA6C5C02D152EA033C02D14FF0000070474FF0010070474FEA410212F5001215D211D56FF47873B3EB625212D94FEAC12343F0004343EA76
:403EC000505311F0004F23FA02F018BF404270474FF00000704750EA013005D111F0004008BF6FF0004070474FF00000704700BF024B58221A604FF0FF307047EC82FF1F74
:403F0000000000000000000000002E004300590000005B008E00C700FC3F00001840000020400000284000005765696768743A20000000004661696C656420746F20696EAB
:403F4000697469616C697A6520436F6C6F722053656E736F720000004661696C656420746F207265616420436F6C6F722053656E736F72004661696C656420746F20766131
:403F80006C69646174652077656967687420286375702073697A6529000000004E6F206375702073697A652073656C656374656400000000556E61626C6520746F206465A6
:403FC0007465726D696E6520636F6C6F72000000556E6B6E6F776E206572726F720000004572726F723A2000524742203D205B25752C2025752C2025755D0D0A0000000063
:40400000446574656374656420636F6C6F723A2025730D0A0000000073686F74000000006D656469756D00006C617267650000004375702073697A652073657420746F203A
:40404000000000006572725F6261644375700A0073746172740000006572725F6E6F4375700A000044726F7070696E6720646965210A0000726573756C7420257300000043
:4040800050756D7020616374697661746564210D0A00000050756D70206465616374697661746564210D0A00466174616C206572726F7220686173206F6363757265642C1A
:4040C0002072657374617274696E672073797374656D210D0A00000050536F432068617320626F6F74656420616E64207375636365737366756C6C7920636F6D706C657466
:4041000065642073657475700D0A0000ED210C22FE16000072656400677265656E000000626C75650000000079656C6C6F7700006379616E000000006D6167656E746100E6
:4041400001010000000101000000010101000001000000000D0A2000C8490040190040510040300000000140001000140140000280160140800500400140000A004C014079
:40418000000200500140200000160140FC05004880004300494E4600696E66004E414E006E616E00300030313233343536373839414243444546003031323334353637380F
:4041C0003961626364656600496E66696E697479004E614E00504F534958002E00000000000000000000F03F000000000000244000000000000059400000000000408F40EE
:40420000000000000088C34000000000006AF8400000000080842E4100000000D01263410000000084D797410000000065CDCD41000000205FA00242000000E87648374263
:40424000000000A2941A6D42000040E59C30A2420000901EC4BCD64200003426F56B0C430080E03779C3414300A0D8855734764300C84E676DC1AB43003D9160E458E1435C
:40428000408CB5781DAF154450EFE2D6E41A4B4492D54D06CFF08044F64AE1C7022DB544B49DD9794378EA4405000000190000007D000000000000000080E03779C3414391
:4042C000176E05B5B5B89346F5F93FE9034F384D321D30F94877825A3CBF737FDD4F1575232D302B2000686C4C0065666745464700000000F8B500BFF8BC08BC9E46704728
:404300004D0000002D0D0000F8B500BFF8BC08BC9E4670472900000028430000C880FF1FD000000058010000000000003912000051120000691200008112000099120000ED
:40434000B1120000F082FF1F0000E02EC05D00001800000000366E01000000000000000000000000000000000000000000000000000000000000000092410000000000002F
:404380000000000000000000000000000000000000000000000000000000000000000000000000000000000000000000000000000000000000000000F880FF1FDB4100004B
:4043C000E5420000E5420000E5420000E5420000E5420000E5420000E5420000E5420000E5420000FFFFFFFFFFFFFFFFFFFFFFFFFFFF00000000000000000000000000006C
:40440000000000000000000000000000000000000000000000000000000000000000000000000000000000000000000000000000000000000000000000000000000000007C
:40444000000000000000000000000000000000000000000000000000000000000000000000000000000000000000000000000000000000000000000000000000000000003C
:4044800000000000000000000000000000000000000000000000000000000000000000000000000000000000000000000000000000000000000000000000000000000000FC
:4044C00000000000000000000000000000000000000000000000000000000000000000000000000000000000000000000000000000000000000000000000000000000000BC
:020000040003F7
:0200000480007A
:40000000045200400364004003650040020301405F040140330501406706014057070140010D01404B1401404B1501403016014056170140051B01400340014002410140FD
:4000400004420140044301400244014002450140064801401A490140084C01400C4D0140045001400251014018801C4060026443840F860F87728438857286388301E001E3
:4000800006080D01168018531A041C531E0C20032244240A265428202A45308032303440360F370138083A803E103F404053410246EC470B481C49FF4AFF4BFF4EF04F4450
:4000C000500C5401580459045A045B045F0166C06A406B028308840C8671870C8A208B438DC18E038F069010912092AC94DC953096229809998C9AD09B039F10A414A5C194
:40010000A70EA930AC10AE40B01FB330B4E0B50FB7C0B988BA20BB20BF44C001C740C9FFCA07CBFFCC40CD20CEF0CF05D008D804D904DA04DF01E040E1A8E240E320010831
:400140000444070409080A060E200F8810801120122015081601188019281A021B441C441E041F102301254026382F14350136A0370838403FEA4224430445404B40508077
:400180005104521055105621571158815A085B109701C0E4C277C4AECA60CCF0CEF8D016D208D60F02040464068808010A18100214801C481E8020A0248426602A042CE06F
:4001C0002E14300132F8340236043E5140344102460B47EC483449FF4AFF4BFF4EF04F44500C540158045A045B045C015D115F0166C06A406B0281FF847F85088A638B63E3
:400200008C1F8E608F04905C911C922393E194019524987399609A0C9C039D1C9FE2A008A110A404A518A80CA9E7AB18AC02AD40B02CB160B210B380B40FB64CB71FB90861
:40024000BA22BB80BE04C006C704C9FFCA07CBFFCC40CD20CEF0CF05D008D602D711D804D904DA04DB04DD01DF01E040E1A8E240E3200048011002020410050606400710B3
:40028000084009080A840C020D84108112041324140216881708184019201A241B401C101E081F4222412310280129202A062B013108324233203402350138A039123B04F8
:4002C00045014640471849024A884BC05104540256885A205C205E095F406420660868086944708072027324840485018B029080960897089A109D019F08A208A508A680C8
:40030000AC80AD20B001B210B480B710C077C2BFC4FFCA0FCC0FCE0FD0E0D204D6F4E680E00100080202040F080F0C011002120C162018041A021E10221026202F01300EBE
:4003400032103420350136013E1454185604580459045B045C115F01801F81108260847F8508887389E78A0C8B188D248E6390039363945C95FF962398019B049D40A00218
:40038000A11CA3E1A404A518A80CA91CABE2AC08AD60B02CB160B20FB410B51FB64CB780B980BA0ABB28BE10D602D712D804D904DB04DC11DD10DF01015002400360041086
:4003C0000583071509400A440B100E7410A016411728180619801A601B021C101D411E0822202540261927102A802D0A2E102F02362837413C103E8A5A025E086004610201
:4004000062806D506F207508760B77287C087E10810286848C018D0892029310940395109B409C089D409E809F04A0A0A280A508A609A722C0FFC27FC4FCCAF8CCF0CEF01D
:40044000D641D80DE008E602E820EA05EE028021824A870189028C448E2A90029215A301A4E7A8E7AC80B060B280B302B418B607B701BB20BE10BF44C063C105C204C40245
:40048000C50EC70CC811C9FFCAFFCBFFCC62CDA0CEF0CF41D00CD804D904DA04DF01E640E702E910EA30EB10ED10EE10EF12004105440640070108010D840F081008114497
:4004C000170A186419801A101B011D851E091F0420082284230426102768288129802B402E012F2235053610374238083A103D123E88408442104725482049204A024C8199
:400500004E084F085004584059805E0264086502670282048301850286028704914C9202931094209608970899209A589C409D059F08A008A101A340A404A588A701AC409E
:40054000AF20B002B201C0B9C2E8C437CAD1CCF0CEF6D0E7D23CD680D8B0E008E612E820EA05EE0233883780CC709F80A7883E109F80A788CE208B0896109F80A7887280A5
:40058000DC0182809E80878096109B089F80A788E6100B04130216405F087B027E018380864187049B089F82A302AA10AB02AF08B302C240C430D680DC80DE20E050E28004
:4005C000E640EAA0EE40132814801F1078107F40C40EC601DE031020848087408C2097809880AB28AF10B010C408E608E80400030A0310031A03003F03C000004000030506
:4006000021030E0400300000001080A0000A0004000308040003800C00201C901C0023082130160000000000000000400F301AC0800F600080000A200000100435060400B9
:4006400002EC000003FFFFFF62A0F0410C0000001800040004040404111100010000000000004002001030100010101200000000000000000000000000000000000000003A
:4006800000000500830040808300830000000000003F3F0000000000000B0B0000000000007A7A00000000008000408080008000000000000C0018010000000000000000FF
:4006C00000000000000000000000000000000000000000000000000000000000000000000000000000000000000000000000000000000000000000000000000000000000FA
:4007000000000000000000000000000000000000000000000000000000000000000000000000000000000000000000000000000000000000000000000000000000000000B9
:400740000000000000000000000000000000000000000000000000000000000000000000000000000000000000000000000000000000000000000000000000000000000079
:400780000000000000000000000000000000000000000000000000000000000000000000000000000000000000000000000000000000000000000000000000000000000039
:0200000490006A
:0400000000004005B7
:0200000490105A
:04000000BC90ACAF55
:0200000490303A
:02000000EC30E2
:0200000490402A
:4000000000000000000000000000000000000000000000000000000000000000000000000000000000000000000000000000000000000000000000000000000000000000C0
:400040000000000000000000000000000000000000000000000000000000000000000000000000000000000000000000000000000000000000000000000000000000000080
:400080000000000000000000000000000000000000000000000000000000000000000000000000000000000000000000000000000000000000000000000000000000000040
:4000C0000000000000000000000000000000000000000000000000000000000000000000000000000000000000000000000000000000000000000000000000000000000000
:0200000490501A
:0C00000000012E16106900012E31FC9941
:00000001FF