:400000000080002011000000A1050000A105000008B5044B1A6803F53F5302331A6000F0DFFA00BFFA46004010B5054C237833B9044B13B10448AFF300800123237010BD52
:400040004881FF1F0000000004180000084B10B51BB108490848AFF300800848036803B910BD074B002BFBD0BDE81040184700BF000000004C81FF1F04180000C880FF1FCA
:400080000000000008B562B6094800F08BFB00F031FB00F0DBFB074B187800F021F9642000F036F9044800F051FB00F03BF9FCE7610100006481FF1F1818000030B5A5B0D5
:4000C000204C214600F038FF05462146002000F033FF002404E001341A49002000F02CFF0028F8D165B31849284600F01BFFC0B91CB1164800F02AFB22E002A800F07EF88A
:40010000BDF80830BDF80A20BDF80C10019100920F4A802104A800F0D3FE04A800F016FB0EE00C49284600F0FDFE48B90A4B187880F00100187000F0D3F8084800F006FB73
:4001400025B030BD301800003418000040180000641800008C1800006481FF1F9C18000038B51DE000F0D4FA0A2802D10F4B5B78B3B10E4B5B787E2B04D80C4A591C51707F
:40018000134418710A2801D00D2809D1074C6378234400251D71201DFFF790FF657038BD00F0BCFA0028DDD138BD00BF6481FF1FF8B506460D4617460F4C0021207800F099
:4001C000C1FC304600F050FD0121207800F0FAFC00240BE06B1E3E199C4201D1002000E0012000F06DFD30700134E4B2AC42F1D300F01EFDF8BD00BFCC80FF1F10B584B0D6
:40020000044601AA0B219520FFF7D2FF9DF807109DF8063003EB01219DF809209DF8083003EB02229DF80B009DF80A3003EB002321806280A38004B010BD00BF10B5044688
:40024000007800F0C7FD607800F0B8FDA07800F0CDFDE07800F0D6FD10BD00BF094B1B78C3F1640398B240F2DE3303FB00F303FB00F3054880FB0320DB17C3EB20300A30D6
:4002800080B27047CD80FF1FAD8BDB682DE9F04107460E46114B1D7815B14C1EE4B200E0002415B94FF0010813E04FF0FF3810E00A4B5B787BB1094B1B789D420BD107EB75
:4002C0008400FFF7BBFFFFF7C9FF00F035FD4444E4B2B442ECD3BDE8F08100BFE881FF1F10B50446064B5870064800F02FFA2CB90548FFF7A3FF054800F028FA10BD00BF77
:40030000E881FF1F00190000BC1800000C190000642801D9024B1878014B1870704700BFCD80FF1F08B50B4B5B78012B08D013B1022B0AD008BD04210748FFF7A7FF08BDDD
:4003400004210648FFF7A2FF08BD08210448FFF79DFF08BDCD80FF1FC0180000D0180000E0180000FEE700BFF0B40022174611E050F82760F3B226F0FF0608E001EB42055D
:4003800011F812406D78A5550132013BDBB2002BF4D10137142FEBD9F0BC7047064B1B78DBB203F00701054A11701B09013213704422034B1A707047CF0100496E5800404B
:4003C0007658004008B50A46002100F070FD08BD38B53322244B1A80182202331A70022203F27E231A7008224FF040231A70032103F5007319701D4B1B78DBB21C490B7041
:400400001C4B1A8041F25122023B1A80002419250CE0194B1B7803F0010343EA440404F003044FF4F07000F0FBFC013D0DB1032CEFD115B90320FFF795FF104B4FF4807212
:400440001A8007221A7000220D490A704820023108701A700222033B1A700A4A137843F00103137038BD00BF8040004008010049A14600402242004025420040044000401F
:4004800006400040A243004008B500F005FD08BD38B572B6334A137843F00403137000240CE0314D630019194A0011462A44084691882858FFF786FF0134E4B2082CF0D9E7
:4004C00000240BE02849A3001819420088180622C16B806BFFF7D8FF0134E4B2002CF1D022494FF09040FFF73FFF214A137843F0020313701032137843F0020313701D4CB2
:40050000237843F040032370A2F58632513A137843F0100313700A2217491848FFF7B4FF082217491748FFF7AFFF082216491748FFF7AAFF164A137843F008031370154D32
:4005400061232B70FFF744FF81232B700122124B1A70FFF723FF0E2221461048FFF794FF38BD00BFE8460040181900005400004803500140A043004038040048C0510040CF
:4005800044040048125100404C04004822510040224300400048004004000840B043004008B500F04DFC03680C2B00D1FEE7FEE708B5094B1A681044084BC31A802B02DC3E
:4005C000054B186005E000F03BFC0C2303604FF0FF32104608BD00BFD080FF1F1082FF1F08B5104E104D16E029686B68AC68002204E051F8040B43F8040B0432A242F8D1BC
:40060000E868002203E0002143F8041B04328242F9D11035013E002EE6D100F017FCFFF731FDFEE701000000B419000008B5104A104B1A60104A136843F4007313600023E2
:400640000AE0032B03D80D4A52F8231000E00C490C4A42F8231001332F2BF2D90A4B1A780A4B1A70074A0A4B1A60FFF711FF08BD0004FA050CED00E014ED00E000000000F4
:40068000A10500000080FF1FBC760040C080FF1F08ED00E07222084B1A702022FF3B1A700622603B1A70472210331A70002203F251131A70704700BF8865004010B500F0FA
:4006C000B7FB04460A4A137843F020031370FF3A137843F01003137002F20112137843F01003137000F018FB204600F0A5FB10BD9865004008B5054B1B7823B9FFF7CAFF20
:400700000122024B1A70FFF7D9FF08BDEA81FF1F014B1878704700BF4B650040044B1B7813F0200F01D0012070470020704700BF69640040034B1B7813F0040FFAD1024BF2
:40074000187070476A6500404A65004038B5074B1B782BB938BDFFF7EDFF0134A4B201E005460024285D0028F5D138BDEA81FF1F014B1B681864704708ED00E04001C0B259
:40078000014B1870704700BF00E400E00122014B1A60704700E100E00122014B1A60704780E100E010B50446FFF7F6FF2046FFF7DFFF0720FFF7E2FFFFF7E8FF10BD00BF4E
:4007C00038B50222114B1A7081220E3B1A70082202331A700F2511331D70002401331C704FF400420A4B1A600721284600F0CEFA0849284600F0B6FA1022074B1A70074B59
:400800001C70074B1C70074B1C7038BDD649004080E100E075080000F881FF1FFE81FF1F0682FF1FFC81FF1F08B500F001FB064A137843F0040313701032137843F00403A1
:40084000137000F0F9FA08BDA543004008B5074B1B7823B9FFF7B4FF0122044B1A70FFF7E3FF4FF40042024B1A6008BDEC81FF1F00E100E038B5A54B1C78A54B1B7813F0D6
:40088000400F00F03A81E4B214F0010F00F01D819F4B1B78453B052B00F21481DFE813F006008200120112010600DF0004F0DF0504F00A04082C42D1954B1B78DBB2452B64
:4008C00035D1944B1B7813F0FF0F10D0924B1B681B78DBB2914A137004228C4B1A7001228F4B1A7046228A4B1A702C46EDE08D4B1B7813F0020F0DD08B4A137843F00A03A1
:4009000013706022824B1A704FF40042874B1A602C46DAE0864A137843F0100313701022844B1A700422023B1A702C46CDE00022764B1A704A22764B1A702C46C5E00A2C32
:400940002BD1794A137843F0A0031370754B1B7813F0020F14D06E4B1B7813F0080F01D0092300E00A23704A11780B4313706022674B1A704FF400426C4B1A602C46A4E09B
:400980006B4A137843F0100313701022694B1A700422023B1A702C4697E0002000F0CAF92C4692E014F0020F36D15D4B1A78D2B2584B1B78DBB29A4210D2594A1378DBB21B
:4009C00055490968CB5CDBB254490B7004214F4B197013780133DBB2137076E0514B1B7813F0020F0CD0504A137843F00A0313706022474B1A704FF400424C4B1A6064E030
:400A00004B4A137843F0100313701022494B1A700422023B1A7058E0424B1B7813F0020F0CD0414A137843F09A0313706022384B1A704FF400423D4B1A6046E03C4A137892
:400A400043F01003137010223A4B1A700422023B1A70354A137843F09003137035E0364A1378DBB2354908682C490978C9B2C15413780133DBB213701278D2B2304B1B7820
:400A8000DBB29A4203D21022204B1A701DE0254B1B7813F0020F0CD0234A137843F00903137060221A4B1A704FF400421F4B1A600BE01F4A137843F0100313700022134B25
:400AC0001A7002E0002000F035F914F0200F1CD00F4B1B7813F0080F01D0012300E00223114A11780B431370114A137803F0EF0313701022064B1A7038BD054B1B7813F041
:400B0000100F02D11022024B1A7038BDD7490040F881FF1FFD81FF1F0882FF1FD8490040FC81FF1F0482FF1FFE81FF1F80E100E0D6490040D94900400682FF1F0082FF1F05
:400B40000582FF1F1A4B1B78DBB2102B29D1194B1B7813F0080F26D14FF40042164B1A604000C0B229B140F001004922104B1A7002E045220E4B1A70104B1870012201333B
:400B80001A700F4B1B7813F0010FFAD00C4B1B7803F00A030A2B08D11022054B1A700320704702207047012070470020704700BFF881FF1FD949004080E100E0D849004021
:400BC000D7490040164B1B7813F0040F23D04000C0B229B140F001004922124B1A7002E04522104B1A70104B1870122201331A700422023B1A700D4B1B7813F0010FFAD0D1
:400C00000A4B1B7803F00A030A2B06D11022054B1A7003207047022070470020704700BFD9490040F881FF1FD8490040D74900400A4B1B7813F0040F0ED01023074A1370CE
:400C40000421023A1170064A1370064B1B7813F0210FFAD00020704702207047D9490040F881FF1FD7490040114B1B7813F0040F1BD0104B18700422013B1A7046220E4B55
:400C80001A700E4B1B7813F0010FFAD00B4B1B7813F0020F04D16022074B1A70002070476022054B1A70032070470220704700BFD9490040D8490040F881FF1FD749004052
:400CC000114B1B7813F0040F1BD0104B1B78DBB2492B05D100220E4B1A704A220B4B1A700B4B1B7813F0010FFAD00A4B1B78DBB218B11021064A117004E06021034A1170B5
:400D000000E0002318467047D9490040F881FF1FD7490040D8490040054A137843F0010313701032137843F001031370704700BFA243004001BE704710B5044605E0084B6E
:400D4000186800F06DF8A4F50044B4F5004FF6D8034B586800FB04F000F062F810BD00BFD480FF1F70B504460E46074B1D681F2802D90020FFF7DEFF04F01F04103455F85F
:400D8000240045F8246070BD08ED00E038B504460D46072902D90020FFF7CCFF1F2C02D90020FFF7C7FF04F01F0000F1604000F564406D01EDB2057038BD00BF044A137888
:400DC00003F0DF03400100F0200018431070704720510040044A137803F0F703C00000F0080018431070704720510040044A137803F0EF03000100F0100018431070704778
:400E000020510040044A137803F0BF03800100F0400018431070704720510040000000000230800803D000BF01380046FCD17047EFF3108072B6704780F31088704700BF5E
:400E4000014B1868704700BF4481FF1F0E4B70B51E460E4C0025E41AA410A54204D056F8253098470135F8E700F092FD084B094C1E46E41AA4100025A54204D056F8253028
:400E800098470135F8E770BD9C1900009C1900009C190000A419000010B5431E0A44914204D011F8014B03F8014FF8E710BD03460244934202D003F8011BFAE770470000E9
:400EC0000CB430B5164B0C1E9DB01D6804DA8B232B604FF0FF301EE04FF40273ADF814300CBF234604F1FF33049307934FF6FF7302900690ADF81630209A21AB02A92846D7
:400F0000019300F083F9431CBCBF8B232B6014B1029B00221A701DB0BDE8304002B070474481FF1F10F8012B11F8013B012A28BF9A42F7D0D01A7047174B2DE9F0411D6865
:400F40000646AC6D0F46FCB9502000F053F8A8658460AB6D046044601C61DC60AB6D9C615C61AB6DDC629C62AB6D5C631C63AB6DDC639C63AB6D5C641C64AB6DDC649C640B
:400F8000AB6D1C77AB6D5C62AA6D39463046BDE8F041012300F002B84481FF1FF0B548B9106838B9F0BD17F8016B5EB1B542FAD12BB1204604460F4614F8015BF3E714607E
:400FC0000370F0BD4DB915602846F0BD17F8016BB54207D0002EF9D11C4623460F4613F8015BF3E715B10021217000E02B461360F0BD0000024B0146186800F04FB800BFE6
:401000004481FF1F38B50546002944D051F8043C0C1F002BB8BFE41800F0C1FB1E4A1368114613B96360146030E0A3420DD92268A018834201BF18685B68121822606360C9
:401040000C6023E0A24203D813465A68002AF9D118681918A1420BD12168014458188242196013D110685268014419605A600DE002D90C232B6009E021686018824201BFCA
:40108000106852680918216062605C602846BDE8384000F085BB38BDF481FF1F70B5CD1C25F0030508350C2D38BF0C25002D064601DBA94202D90C23336046E000F06FFB75
:4010C000234B1C681A462146A1B10B685B1B0ED40B2B03D90B60CC18CD501EE08C420BBF63684B681360636018BF0C4615E00C464968E9E7174C23681BB9304600F016FB28
:4011000020602946304600F011FB431C18D0C41C24F00304A0420DD12560304600F040FB04F10B00231D20F00700C31A0ED05A42E25070BD211A304600F0F8FA0130EBD199
:401140000C233360304600F02BFB002070BD00BFF481FF1FF081FF1F2DE9F0478E6882469E420C46914698463ED88A8912F4906F3AD02568096902236F1A656905EB450514
:4011800095FBF3F57B1C43449D4238BF1D4653050FD52946FFF782FF064698B13A462169FFF77AFEA38923F4906343F08003A38113E02A4600F0F5FA064670B9216950464A
:4011C000FFF720FF0C23CAF80030A3894FF0FF3043F04003A381BDE8F08726613E44266046466561ED1BA560464528BF464649463246206800F0B8FAA36800209B1BA36068
:4012000023681E442660BDE8F08700002DE9F04F9DB003938B8980461C060D4616460DD50B695BB94021FFF739FF2860286118B90C23C8F80030CDE040236B6100230993A7
:4012400020238DF82930DFF89CB130238DF82A3037463C4614F8013B1BB9B7EB060910D003E0252BF9D02746F3E74B46324629464046FFF771FF013000F0A780099B4B4429
:4012800009933B78002B00F0A08000234FF0FF3204930793059206938DF853301A930126052221784E4800F051FA671C049B38B14B4A3C46801A06FA00F018430490EFE7D2
:4012C000D90644BF20228DF853201A0744BF2B228DF8532022782A2A03D0079A00210A200BE0039A111D12680391002A10DA524243F00200079204900BE027463B780134AE
:40130000303B092B03D800FB02320121F5E701B107923B782E2B1ED17B782A2B0AD1039B02371A1D1B680392002BB8BF4FF0FF33059310E0002319460593781C0A240746B3
:401340003A780130303A092A03D804FB01210123F5E703B1059103223978224800F0F6F940B14023CBEB000003FA00F0049B013718430490397806221B487E1C8DF8281038
:4013800000F0E4F988B1194B33B9039B073323F007030833039314E003AB00932A46144B04A94046AFF3008007E003AB00932A460F4B04A9404600F093F8B0F1FF3F824671
:4013C00003D0099B5344099342E7AB895B0601D4099801E04FF0FF301DB0BDE8F08F00BF5C190000621900006619000000000000591100002DE9F04791461F460A698B6848
:4014000006469342B8BF1346C9F8003091F843200C46DDF8208012B10133C9F800302368990642BFD9F800300233C9F80030256815F0060510D104F1190A07E001235246A4
:4014400039463046C04701301AD00135E368D9F800209B1A9D42F1DB94F843302268003318BF012392060FD5E118302081F843005A1C94F845102244023382F8431003E0A9
:401480004FF0FF30BDE8F08704F1430239463046C0470130F4D02268D9F80050E36802F00602042A08BF5D1B2269A3680CBF25EAE57500259342C4BF9B1AED184FF00009D1
:4014C0001A344D4509D00123224639463046C0470130D5D009F10109F3E70020BDE8F0872DE9F04317460A7E85B06E2A984606460C460C9B01F1430E00F0AE8011D8632AC6
:4015000022D009D8002A00F0BB80582A40F0CA8081F84520834955E0642A1ED0692A1CD0C0E0732A00F0B08009D86F2A2ED0702A40F0B8800A6842F020020A603EE0752AE9
:4015400024D0782A3AD0ADE01A6801F14205111D1960136884F84230A8E021681A6811F0800F02D0111D196008E011F0400F02F10401196002D0B2F9003000E01368002BFB
:401580003CDA2D225B4284F8432037E021681A6811F0800F02D0111D196007E011F0400F02F10401196001D0138800E01368227E5C496F2A14BF0A2208221BE078225A4971
:4015C00084F845202268186812F0800F00F104051D6003D1550601D5038800E00368D00744BF42F0200222601BB9226822F0200222601022002084F8430001E049490A22A9
:401600006568002DA56008DB206820F0040020602BB9002D7DD175460CE0002B79D07546B3FBF2F002FB1033CB5C05F8013D03460028F5D1082A0BD12368DA0708D523692B
:4016400062689A42DEBF302305F8013C05F1FF35C5EB0E0323612EE008681A6810F0800F496903D0101D1860136808E010F0400F02F104001860136801D0198000E0196013
:4016800000232361754616E01A68111D1960156800216268284600F059F808B1401B6060636804E004F1420584F8422001232361002384F84330CDF800803B4603AA214661
:4016C0003046FFF797FE013002D14FF0FF3026E023692A4639463046C0470130F5D023689B0710D5002504F1190907E001234A4639463046C0470130E7D00135E368039A98
:401700009B1A9D42F2DBE068039B9842B8BF184605E00B7804F1420584F842308AE705B0BDE8F0836D1900007E19000038B5064C0023054608462360FEF73AFF431C02D1E8
:40174000236803B12B6038BD0C82FF1F10B5C9B202449042034605D01C7801308C42F8D1184610BD002010BD884210B501EB020301D8421E0BE09842FBD28118D21AD3422F
:4017800004D013F8014D01F8014DF8E710BD994204D011F8014B02F8014FF8E710BD70477047F8B5074615460E4621B91146BDE8F840FFF773BC1AB9FFF724FC2846F8BDB9
:4017C00000F015F885420ED929463846FFF766FC044650B131462A46FFF75EFB31463846FFF710FC01E03046F8BD2046F8BD51F8040C0028BEBF091851F8043CC01804389E
:4018000070470000000000003078000030580000306200003042000050726F6772616D206861732073746172746564210D0A00000D0A2000726561645F636F6C6F720000E9
:401840004E6F20617267756D656E74732073686F756C6420626520706173736564210D0A00000000436F6C6F72446174613A0A202020523A2025640A202020473A20256461
:401880000A202020423A2025640A0000746F67676C655F6D6F746F72000000004D6F746F7220737461746520686173206265656E20746F67676C6564210D0A0000000000D7
:4018C00001000000000100000000010000000001010100000001010000000101010000010100000001010000000100000001010000000100000001010000000101000001D0
:4019000048656C6C6F310D0A0000000048656C6C6F320D0A00000000C84900401900005100401000305100404000F051004010000000014000100014014000080040014062
:40194000000A004C014000020050014020000000605200403004004806004300232D302B2000686C4C00656667454647003031323334353637383941424344454600303174
:4019800032333435363738396162636465660000F8B500BFF8BC08BC9E4670474D0000002D060000F8B500BFF8BC08BC9E46704729000000C8190000C880FF1F80000000B8
:4019C000C80000000000000000000000393201001082FF1F0000E02EC05D00001800000000366E01000000000000000000000000000000000000000000000000000000001B
:401A0000000000005A190000000000000000000000000000000000000000000000000000000000000000000000000000000000000000000000000000000000000000000033
:401A400000000000E480FF1F0000000000000000000000000000000000000000000000000000000000000000000000000000000000000000000000000000000000000000E4
:401A80000000000000000000000000000000000000000000000000000000000000000000000000000000000000000000000000000000000000000000000000000000000026
:401AC00000000000000000000000000000000000000000000000000000000000000000000000000000000000000000000000000000000000000000000000000000000000E6
:401B000000000000000000000000000000000000000000000000000000000000000000000000000000000000000000000000000000000000000000000000000000000000A5
:401B40000000000000000000000000000000000000000000000000000000000000000000000000000000000000000000000000000000000000000000000000000000000065
:020000040003F7
:0200000480007A
:40000000016400400265004001070140540801403109014003150140011701403A18014047190140581A0140511B014002400140014101400342014004430140024801402E
:4000400010490140084C01400C4D01400450014002510140893888728A0FE602030805010706080709060B010D0411061301140415071601180219061A091C011E062502BF
:4000800028072B082F0132083507360737083B203F40580459045F0180DC8222834086038B408F13900C9271940996D0970898149B0C9D2C9F03A131A220A30EA410A64032
:4000C000A810A931AAACAB06B0E0B330B41FB540B70FB908BA02BB80BF14C003C504C9FFCA07CBFFCC40CD20CEF0CF05D008D418D604D804D904DA04DB04DF01E040E1A8C4
:40010000E240E3200280032004200A600B080E020F1810A4151019011A401B201E12210822C023042590280429212E082F093104325034083711388039023A103C803D2207
:400140003E0441084820490450C051405A02618063448740C04CC2EEC44ECA75CCEECEFDD002D601D80DE008E401EA05E620000F0104040C05180A030B040C080D10113C36
:4001800013021402153F18031A0C1B231C03200C220324042508280F291C2B212C012D272F183138340F371F3A283B8056025712580459045B045F01860288028C018D0266
:4001C00090029101940198019F01A202A801A901AE02B002B201B503B920BE05D804D904DF01012002200301051006400712080809080A440E060F1010041120128013408D
:4002000014081602170519081A801D081E0422102501270129202C042E883101328034083510370139803B403C883E12454046015D086C106D906E087444760877169180E4
:400240009250942095129626971A99019C089D209E189F11A110A281A320A440A501A70CC0F7C2EEC4FBCA74CCE9CEF8D640E62002050403060C1003120413011501160813
:400280001D04200A220424032502260429012F0131013304340F350239023A203F144061410446CE470B481C49FF4AFF4BFF4EF04F44500C5401580459045A045B045F014D
:4002C00066C06A406B02826084608A608C109442960998139C609E04A260A460A813AC21AE0AB060B203B410B60CBE40C063C102C204C401C6E0C70CC818C9FFCAFFCBFF03
:40030000CC62CDA0CEF0CF41D00CD804DA04DF01E640E702E910EA30EB10ED10EE10EF12000403400408051006810A600E1A0F10101012A0155016201701180419201D909E
:400340001E101F0221012204230428082AE02B2030883301342035104140424043404428458149204C0C50805220530456105708581059015A887E017F0280808111830124
:4003800087048D508E828F04919092E095029602971A98089A019B019D309E52A008A111A285A320A620A70CB008B284C0FCC2ECC4FCCA0ECC0BD0F9D224D60FE00AE40134
:4003C000EA053220CC10A6203E10A620CE2086209610A620E6408A029610122016407B027E0282208640A202A302AA10AB02C430DC80DE20E010E480EAA0132817017B1007
:400400007F408B01C40EDE03E604128071028310850287408E809780A710AB28C408DC01E20200010C0110011C01000303C0000002800000430000008300408083008300A2
:4004400000000000000B0B00000000000078780000000000000000000000000000000000000000000000000000000000000000000000000000000000000000000000000076
:40048000000000000000000000000000000000000000000000000000000000000000000000000000000000000000000000000000000000000000000000000000000000003C
:4004C00000000000000000000000000000000000000000000000000000000000000000000000000000000000000000000000000000000000000000000000000000000000FC
:4005000000000000000000000000000000000000000000000000000000000000000000000000000000000000000000000000000000000000000000000000000000000000BB
:40054000000000000000000000000000000000000000000000000000000000000000000000000000000000000000000000000000000000000000000000000000000000007B
:0200000490006A
:0400000000004005B7
:0200000490105A
:04000000BC90ACAF55
:0200000490303A
:02000000596C39
:0200000490402A
:4000000000000000000000000000000000000000000000000000000000000000000000000000000000000000000000000000000000000000000000000000000000000000C0
:400040000000000000000000000000000000000000000000000000000000000000000000000000000000000000000000000000000000000000000000000000000000000080
:400080000000000000000000000000000000000000000000000000000000000000000000000000000000000000000000000000000000000000000000000000000000000040
:4000C0000000000000000000000000000000000000000000000000000000000000000000000000000000000000000000000000000000000000000000000000000000000000
:0200000490501A
:0C00000000012E16106900012E2069D5A9
:00000001FF